:100000000C94AA030C94D2030C94D2030C94D20344
:100010000C94D2030C94D2030C94D2030C94D2030C
:100020000C94D2030C94D2030C949F0A0C940E0BE4
:100030000C94D2030C94D2030C94D2030C94D203EC
:100040000C94D2030C94D2030C94D2030C94D203DC
:100050000C94D2030C94D2030C94D2030C94400D54
:100060000C94D2030C94D2030C94D2030C94D203BC
:100070000C94D2030C94D2030C94D2030C94D203AC
:100080000C94D2030C94D2030C94D2030C94D2039C
:100090000C94D2030C94D2030C94D2030C94D2038C
:1000A0000C94D2030C94D2030C94D20313100000CE
:1000B00000008080C0D0F8F8F8D0C0808000000038
:1000C0000000001C1D3F332125333F3F33212533E2
:1000D0001D1C0000131000000080C0C0F0F8FCFEE2
:1000E000FCF8F0C0C080000000001C3F3F7F7F7F15
:1000F0007F7F7F7F7F7F7F7F3F3F1C00090F000056
:1001000000000000000000000000030003000000E9
:10011000090F0000E0FCFEFEE20000000E1F3F3F62
:100120003F1F0E0000000000003E5B4F5B3E3E6B39
:100130004F6B3E1C3E7C3E1C183C7E3C181C577D81
:10014000571C1C5E7F5E1C00183C1800FFE7C3E7CD
:10015000FF0018241800FFE7DBE7FF30483A060EDF
:100160002629792926407F050507407F05253F5A26
:100170003CE73C5A7F3E1C1C08081C1C3E7F142296
:100180007F22145F5F005F5F06097F017F00668941
:10019000956A606060606094A2FFA29408047E0487
:1001A0000810207E201008082A1C08081C2A0808AD
:1001B0001E101010100C1E0C1E0C30383E3830066D
:1001C0000E3E0E06000000000000005F0000000769
:1001D000000700147F147F14242A7F2A1223130897
:1001E000646236495620500008070300001C224173
:1001F000000041221C002A1C7F1C2A08083E080817
:1002000000807030000808080808000060600020C6
:10021000100804023E5149453E00427F40007249A9
:100220004949462141494D331814127F102745454D
:1002300045393C4A49493141211109073649494963
:1002400036464949291E00001400000040340000D1
:10025000000814224114141414140041221408023A
:10026000015909063E415D594E7C1211127C7F49AD
:100270004949363E414141227F4141413E7F494902
:1002800049417F090909013E414151737F0808082E
:100290007F00417F41002040413F017F08142241FF
:1002A0007F404040407F021C027F7F0408107F3E59
:1002B0004141413E7F090909063E4151215E7F09C6
:1002C000192946264949493203017F01033F40402D
:1002D000403F1F2040201F3F4038403F6314081418
:1002E0006303047804036159494D43007F41414150
:1002F0000204081020004141417F04020102044031
:1003000040404040000307080020545478407F28B4
:100310004444383844444428384444287F385454AA
:10032000541800087E090218A4A49C787F080404CD
:100330007800447D40002040403D007F102844006C
:1003400000417F40007C047804787C0804047838FD
:1003500044444438FC1824241818242418FC7C082D
:10036000040408485454542404043F44243C4040AA
:10037000207C1C2040201C3C4030403C442810285D
:10038000444C9090907C4464544C440008364100A6
:100390000000770000004136080002010204023C20
:1003A0002623263C1EA1A161123A4040207A3854EF
:1003B000545559215555794121545478412155546A
:1003C000784020545579400C1E52721239555555BB
:1003D00059395454545939555454580000457C41A6
:1003E0000002457D420001457C40F0292429F0F0BF
:1003F000282528F07C545545002054547C547C0A10
:10040000097F4932494949323248484832324A48DC
:1004100048303A4141217A3A42402078009DA0A0DC
:100420007D39444444393D4040403D3C24FF242430
:10043000487E4943662B2FFC2F2BFF0929F620C04D
:10044000887E090320545479410000447D4130489E
:10045000484A32384040227A007A0A0A727D0D19E1
:10046000317D2629292F28262929292630484D4043
:1004700020380808080808080808382F10C8ACBA3F
:100480002F102834FA00007B000008142A142222BE
:10049000142A14089500220095AA005500AAAA550E
:1004A000AA55AA000000FF00101010FF0014141439
:1004B000FF001010FF00FF1010F010F0141414FCD7
:1004C000001414F700FF0000FF00FF1414F404FCF4
:1004D000141417101F10101F101F1414141F0010D5
:1004E0001010F0000000001F101010101F1010104E
:1004F00010F010000000FF1010101010101010105D
:10050000FF10000000FF140000FF00FF00001F109C
:10051000170000FC04F414141710171414F404F456
:100520000000FF00F714141414141414F700F71447
:100530001414171410101F101F141414F414101096
:10054000F010F000001F101F0000001F140000003A
:10055000FC140000F010F01010FF10FF141414FF32
:10056000141010101F00000000F010FFFFFFFFFF2D
:10057000F0F0F0F0F0FFFFFF0000000000FFFF0FC1
:100580000F0F0F0F38444438447C2A2A3E147E0251
:10059000020606027E027E026355494163384444E6
:1005A0003C04407E201E2006027E020299A5E7A59B
:1005B000991C2A492A1C4C7201724C304A4D4D300C
:1005C0003048784830BC625A463D3E494949007E31
:1005D0000101017E2A2A2A2A2A44445F44444051C8
:1005E0004A444040444A51400000FF0103E080FF7C
:1005F000000008086B6B083612362436060F090F08
:1006000006000018180000001010003040FF010123
:10061000001F01011E00191D1712003C3C3C3C004C
:1006200000000000F0F89C8E8783878E9CF8F00015
:1006300000FEFF0303030303070EFCF80000FEFFA8
:100640000303030303070EFCF80000FFFF00000094
:1006500000000000FFFF0000FEFF8383838383C749
:10066000EE7C380000F8FC0E07030303070EFCF8CD
:1006700000003F7FE0C08080C0E07F3FFFFF0101BE
:100680000101010101FFFF0000FFFF0C0C0C0C1C1D
:100690003E77E3C100007FFFC0C0C0C0C0E0703F34
:1006A0001F00001F3F70E0C0C0C0E0703F1F00008F
:1006B0007FFFC1C1C1C1C1E3773E1C00001F3F7075
:1006C000E0C0C0C0E0703F1F000000000001FFFF5D
:1006D00001000000D5F08D14A1C881CFD9F1AF2061
:1006E00000080B00020202000009040000010202DF
:1006F0000000052400100105240101010424020664
:1007000005240600010705810310004009040100CB
:10071000020A0000000705020240000007058302EC
:100720004000000403090412010002EF02014041ED
:1007300023418000010102030141726475696E6FFB
:10074000204C4C430041726475696E6F2059756E80
:100750000000020E11241FBECFEFDAE0DEBFCDBFD6
:1007600011E0A0E0B1E0E6EAF7E202C005900D92E8
:10077000AE33B107D9F727E0AEE3B1E001C01D9277
:10078000AE37B207E1F713E0CAEAD3E004C021971D
:10079000FE010E94C613C93AD107C9F70E945F0E35
:1007A0000C94D1130C940000EFE5F1E0A0E0B8E068
:1007B00000800EBC8111012C1197A0FDFDCF01928C
:1007C000B9F70DB40895EFE5F1E081118FEF002442
:1007D00081938193819381930394D1F70895FC01D0
:1007E00080915E01882311F13FB7F89482E08093F5
:1007F000E9002091F200822F90E01816190614F4F7
:1008000081E090E0882339F0289844E640935D0128
:100810004091F1004083222339F02091F200211110
:1008200003C02BE62093E8003FBF08958FEF9FEFB2
:1008300008952FB7F89483E08093E9009091E80041
:10084000892F807295FF04C09091F20080E4891B8B
:100850002FBF08958091550181110DC082E08093D2
:10086000510184E08093520110925401109253017F
:1008700081E08093550181E591E00895CF93DF9366
:100880001F92CDB7DEB76983DC01ED91FC91028048
:10089000F381E02D41E050E0BE016F5F7F4F09958D
:1008A0000F90DF91CF91089583E08093E9008091CC
:1008B000F200882319F08AE38093E80008950E94EB
:1008C000190490E00895CF93DF931F92CDB7DEB760
:1008D000FC018485958597FD08C02FEF3FEF358794
:1008E00024870F90DF91CF910895CE0101960E9449
:1008F000EF03019719F4898190E0F3CF8FEF9FEF19
:10090000F0CF0F931F93CF93DF931F92CDB7DEB736
:100910008C01FC018485958597FF0BC0CE01019663
:100920000E94EF03019771F4898190E0F8019587A7
:100930008487F801848595850F90DF91CF911F9171
:100940000F9108958FEF9FEFF1CFFC01848595857E
:1009500097FD0BC09FB7F89482E08093E9008091E7
:10096000F2009FBF90E0019608959FB7F89482E04F
:100970008093E9008091F2009FBF90E0089540913C
:100980004B0150914C012091490130914A0142178D
:100990005307B4F49091E8009570E1F39091E8006A
:1009A00092FD19C08093F10080914B0190914C0110
:1009B00001968F739927892B19F48EEF8093E800A5
:1009C00080914B0190914C01019690934C01809342
:1009D0004B0181E0089580E00895DF92EF92FF924D
:1009E0000F931F93CF93DF93D82E8A01EB017B01E6
:1009F000E40EF51ECE15DF0559F0D7FE12C0FE013C
:100A000084910E94BF0421968111F4CF0FEF1FEF54
:100A1000C801DF91CF911F910F91FF90EF90DF9070
:100A200008958881EECF0F931F93CF93DF931F928A
:100A3000CDB7DEB782E0898342E450E061EE76E034
:100A400080E80E94ED040E942A04DC0112960D91B8
:100A50001C910115110589F0D801ED91FC910280DE
:100A6000F381E02DBE016F5F7F4FC801099597FDAF
:100A700004C0F80100851185ECCF89810F90DF91CA
:100A8000CF911F910F910895615030F02091F100A6
:100A9000FC0120830196F8CF289884E680935D01BD
:100AA0000895AF92BF92CF92DF92EF92FF920F9391
:100AB0001F93CF93DF936C017B018B01040F151FF4
:100AC000EB015E01AE18BF08C017D10759F069915C
:100AD000D601ED91FC910190F081E02DC6010995C0
:100AE000892B79F7C501DF91CF911F910F91FF906D
:100AF000EF90DF90CF90BF90AF9008953FB7F894FC
:100B000080913F0190914001A0914101B09142013B
:100B100026B5A89B05C02F3F19F00196A11DB11D58
:100B20003FBFBA2FA92F982F8827BC01CD01620F94
:100B3000711D811D911D42E0660F771F881F991F4F
:100B40004A95D1F708958F929F92AF92BF92CF921C
:100B5000DF92EF92FF926B017C010E947E054B01B8
:100B60005C01C114D104E104F104B9F00E947E05D6
:100B7000681979098A099B09683E734081059105C6
:100B800080F321E0C21AD108E108F10888EE880E4E
:100B900083E0981EA11CB11CE4CFFF90EF90DF9082
:100BA000CF90BF90AF909F908F9008958F929F921B
:100BB000AF92BF92CF92DF92EF92FF920F931F936B
:100BC000CF93DF936C017B018A0180910B01882315
:100BD00009F45CC080915E01882309F457C08091BC
:100BE000500180FF05C08091E00082608093E000AA
:100BF000E801B12C8AEFA82E93E0892E2AE3922EE9
:100C0000209711F4BB20D9F10E94190481110AC068
:100C1000AA94AA20D9F161E070E080E090E00E94FF
:100C2000A305EECF8C171D0611F00CF08C2F9FB78B
:100C3000F8948092E9002091E80025FD02C09FBF52
:100C4000DFCF282F30E0C21BD30BF701815020F0FB
:100C500041914093F100FACFE20EF31EBB2021F048
:100C60009092E800B12CEBCF8091E80085FDE7CFB2
:100C70009092E800BB24B394209709F3F3CF5D98DA
:100C800084E680934F01101611063CF081E090E05D
:100C9000F6019383828310E000E0C801DF91CF91D9
:100CA0001F910F91FF90EF90DF90CF90BF90AF908A
:100CB0009F908F9008954F925F926F927F928F9244
:100CC0009F92AF92BF92CF92DF92EF92FF920F93DB
:100CD0001F93CF93DF934C015901FC2DC02FD0E01F
:100CE000CE01880D991D181619060CF06CC020E86D
:100CF000821691040CF067C09B012E0D311D121657
:100D000013060CF060C0603471050CF05CC0411536
:100D1000510509F458C0E62FE770FE2EDB0177FD80
:100D2000179633E0B595A7953A95E1F73A2F77FFF7
:100D300004C0FF2011F03FEF3A0F662777276819AC
:100D4000790997FC02C070E060E0803891050CF4EE
:100D50004BC090E89819961BA32F032E000CBB0BD9
:100D60001A2F10953F3F0CF010E021E08E2D877078
:100D700009F420E0E694E694E694E20EAE0DB11D8F
:100D800019971CF028E0E22EE31AE11A310F20E84F
:100D90003203D0011124A80DB91DA60FB71F019F62
:100DA000600D711D1124460F571F0F2D0F2C000CC5
:100DB000110BF33009F41CC1C8F4F13009F4D0C0B0
:100DC000F23009F47CC0DF91CF911F910F91FF9019
:100DD000EF90DF90CF90BF90AF909F908F907F90DB
:100DE0006F905F904F900895902FB5CFFA3FB1F17B
:100DF000232F2E0DFB3F39F7321729F3BD01615A1E
:100E00007E4FD12CC12CC91608F0A4C0FA01EC0DFC
:100E1000FD1DE491F0E04F01002E02C0880C991CEA
:100E20000A94E2F737FD06C0FB018081E82CE094CC
:100E30008E218083FF2061F0373054F45B01F0E8AD
:100E4000AF0EB11CE92CE094F50180818E218083E6
:100E5000FFEFCF1ADF0A6F5F7F4FD5CF232F2E0D05
:100E6000321709F4B0CFBD01615A7E4FD12CC12C8D
:100E7000C91608F069C0FA01EC0DFD1DE491F0E01F
:100E80004F01002E02C0880C991C0A94E2F737FD2E
:100E900004C0FB01808188298083FF2051F0373016
:100EA00044F45B01F0E8AF0EB11CF50180818929A3
:100EB0008083FFEFCF1ADF0A6F5F7F4FD9CF6FEFCD
:100EC00070E00F2C02C0660F771F0A94E2F760955E
:100ED0007095772E232F2E0D321709F474CFFD0154
:100EE000E15AFE4F6F01B12CA12CA91638F5FA0179
:100EF000EA0DFB1DE491F0E02F01002E02C0440C2E
:100F0000551C0A94E2F737FD05C0F601808186235F
:100F100084298083FF2059F037304CF44601F0E8F3
:100F20008F0E911CF4018081872185298083FFEF3A
:100F3000AF1ABF0A8FEFC81AD80AD7CF3F5F4C0F3E
:100F40005D1FA058BF4FC8CF3F5F4C0F5D1FA0581B
:100F5000BF4F86CF3F5F4C0F5D1FA058BF4F4CCF98
:100F60006A0D7B1D232F2E0D321709F42CCFFD01A6
:100F7000E15AFE4F6F01B12CA12CA91688F5FB0197
:100F8000EA0DFB1D8490912C002E02C0880C991C48
:100F90000A94E2F780949094FA01EA0DFB1D6490A4
:100FA000712C002E02C0660C771C0A94E2F737FD04
:100FB00005C0F6018081882186298083FF2049F0C1
:100FC00037303CF4F601E058FF4F808189218729B2
:100FD0008083FFEFAF1ABF0A8FEFC81AD80ACDCFB0
:100FE0003F5F4C0F5D1F6C0F7D1FA058BF4FBCCFE4
:100FF000C92ED12CFA01E60FF71FA15ABE4F00E807
:1010000010E00C191D09CC19DD09BE01660F771F10
:1010100041E050E06A010F2C01C0CC0C0A94EAF7C1
:10102000592F2E2D792ECF93DF93ED01EF96EF966A
:1010300022968590A590FF2059F08C9C4001AC9C95
:10104000500137302CF4E880B094EB20E928E99285
:1010500033233AF0EC90A094EA20E828ED920C9427
:10106000320811965A9529F72A9551F0572D339544
:101070001124E60FF11DA00FB11DC00FD11DD9CF56
:10108000DF91CF9111249FCE2D9A0895BC0190E05D
:1010900080E00C94A3058FB18095807F669B88606B
:1010A0001C9B846008952F923F924F925F926F92A3
:1010B0007F928F929F92AF92BF92CF92DF92EF92E8
:1010C000FF920F931F93CF93DF9300D000D01F9216
:1010D000CDB7DEB79C838B836A3059F5DC0155961A
:1010E0008C91B8E08B9F90011124EB81FC81818968
:1010F0009289820F931F928B818B108A178681E0D1
:1011000090E00F900F900F900F900F90DF91CF9184
:101110001F910F91FF90EF90DF90CF90BF90AF9015
:101120009F908F907F906F905F904F903F902F9007
:1011300008956D3021F3AB81BC811F968D919C91F8
:101140005097803891050CF087C05196CD90DC9077
:10115000B0E4CB16D1040CF07FC0EB81FC81958804
:10116000E5E09C019E9E200D311D112412161306F0
:101170000CF072C0E92CF12C9701B3E0220F331F61
:10118000BA95E1F72C0D3D1D121613060CF064C044
:10119000AB81BC8154965C90549753964C906E9F53
:1011A000F0011124EC5DFE4F70E02491753009F4DC
:1011B00020E05601A8E06A2E222E312C642D20FF5B
:1011C000652D611103C0541409F437C0AC0161707E
:1011D0006A834983242F281B291578F510E000E045
:1011E000091540F54038510510F598012A0D3B1DB1
:1011F00020343105E0F460E1762E898061E021FD44
:1012000064E020FD660F22FD6295287F729ED0016A
:101210001124A80D6D83A15ABE4F2C913A81862EC0
:10122000822A311103C08D80809482228C920F5FBC
:101230001F4FD6CF4F5F5F4FCCCF9101359527958C
:101240006A94AE0CBF1C6110B7CF7F5F31968E0DD4
:101250009F1D763009F0A9CFAB81BC8155962C91AA
:101260005597422F50E01F968D919C91B6E02B9F91
:10127000800D911D1124EB81FC81908B878726893D
:10128000222309F43CCF6AEF64039001659F300D7F
:10129000112420583F4F281739070CF030CFCF01C9
:1012A0000190F081E02D0190F081E02D6AE0099538
:1012B00026CF0895089590E080E00895CF92DF92C0
:1012C000EF92FF921F93CF93DF93FC0110851116CD
:1012D0009CF5EC01C480D580E680F7808185882369
:1012E000E9F120E030E040E051ECC701B6010E9496
:1012F000D91287FF05C02DEC3CEC4CEC5DE314C02B
:1013000020E030E040E851E4C701B6010E946D12D0
:1013100020E030E040E852E40E94D91287FF14C078
:1013200020E030E040E05FE3C701B6010E946D12AB
:101330006C837D838E839F83DF91CF911F91FF907C
:10134000EF90DF90CF900895115018871111F4CFCE
:1013500080914701815080934701EECF20E030E03B
:1013600040EE50ECC701B6010E94D91287FDC3CFF1
:1013700020E030E040E751E4C701B6010E946D1261
:1013800020E030E040E852E40E94D91220E030E052
:1013900040E85FE387FDC8CF115018871111CCCF0B
:1013A00080914801815080934801C6CF8F929F92CF
:1013B000AF92BF92CF92EF920F93CF93DF93FC0146
:1013C000208512160CF03FC0EC0164817581868186
:1013D00097810E94DE124B01688179818A819B810D
:1013E0000E94DE12CB012985222309F436C0E4EDE8
:1013F000F0E00491E5EDF0E0E4904BEFC42E30E036
:1014000020E046ED50E0B4010E945B06ECEAF0E01B
:101410000491EDEAF0E0E4906C817D818E819F8102
:101420000E94DE124B01688179818A819B810E9432
:10143000DE12CB015AEFC52E30E020E04EEA50E03C
:10144000B4010E945B06DF91CF910F91EF90CF9096
:10145000BF90AF909F908F900895E0E1F1E00491EC
:10146000E1E1F1E0E4902BEFC22E30E020E042E138
:1014700051E0B4010E945B06ECEFF0E00491EDEF67
:10148000F0E0E4906C817D818E819F810E94DE126C
:101490004B01688179818A819B810E94DE12CB0198
:1014A0003AEFC32E30E020E04EEF50E0C9CF0E946B
:1014B000CC13CF93DF93EC018985882301F10E943F
:1014C0009B112DE630E040E050E00E9409120E949E
:1014D0001613688379838A839B8380E090E0A0E879
:1014E000B1EC8C839D83AE83BF838CE3888780912E
:1014F00047018F5F80934701DF91CF9108950E944C
:101500009B1127E730E040E050E00E9409120E9462
:101510001613688379838A839B8380E090E0A0E739
:10152000B1EC8C839D83AE83BF8381E088878091FB
:1015300048018F5F80934801DFCF0C94F3111F9215
:101540000F920FB60F9211248F939F938091E10019
:101550009091E100937F9093E10083FF0FC0109280
:10156000E90091E09093EB001092EC0092E39093ED
:10157000ED0010925E0198E09093F00082FF22C08F
:1015800093E09093E9009091F200992319F09AE387
:101590009093E80090914F01992341F090914F0171
:1015A000915090934F01911101C05D9A90915D010E
:1015B000992341F090915D01915090935D019111BB
:1015C00001C0289A84FF18C08091E2008E7E81605D
:1015D0008093E2008091E1008F7E8093E100809112
:1015E00050018E7E8061809350019F918F910F906A
:1015F0000FBE0F901F90189580FFF7CF8091E200EB
:101600008E7E80618093E2008091E1008E7E8093E7
:10161000E100809150018E7E8160E5CF1F920F9294
:101620000FB60F921124CF92DF92EF92FF920F9399
:101630001F932F933F934F935F936F937F938F935A
:101640009F93AF93BF93EF93FF93CF93DF93CDB768
:10165000DEB76C97DEBFCDBF1092E9008091E80045
:1016600083FF25C068E0CE0145960E94440582EFC5
:101670008093E8008D8987FF39C09091E80090FF42
:10168000FCCF982F907609F034C19E894F89588DF0
:101690002F89F88C911131C0803861F580914E010D
:1016A0008093F1001092F1008EEF8093E8006C9629
:1016B0000FB6F894DEBF0FBECDBFDF91CF91FF9183
:1016C000EF91BF91AF919F918F917F916F915F91BA
:1016D0004F913F912F911F910F91FF90EF90DF90CD
:1016E000CF900F900FBE0F901F9018959EEF909384
:1016F000E800C7CF1092F100D5CF913059F4811195
:10170000D3CF4130510581F680914E018D7F80937A
:101710004E01CACF933049F48111C6CF41305105F3
:1017200019F680914E018260F2CF953041F480919C
:10173000E80080FFFCCF20682093E300B5CF96300F
:1017400009F0A9C00B8D1C8D22E01092E9001092C7
:101750004C0110924B01F2122EC010924A011092CD
:1017600049010E9413051F8299E09983FA8291E052
:101770009E8390EA98879AEF998720914B01309148
:101780004C01275F3F4F3C832B838D831092E900F0
:1017900010924C0110924B0110934A0100934901A1
:1017A00049E050E0BE016F5F7F4F80E00E94ED0492
:1017B0000E94130579CF10934A01009349010E94BA
:1017C0002A04DC0112960D911C910115110509F4F2
:1017D00051C1D801ED91FC910480F581E02DBE014D
:1017E0006B5E7F4FC8010995009709F03EC1F80173
:1017F00000851185EACFF3E0FF120EC08F898823A0
:1018000009F440C0823061F440E86BE085E497E081
:101810000E948A0D811148CF81E28093EB0047CF6F
:10182000813029F440E86BE089E397E0F1CF833021
:1018300099F70E942A04DC011296ED90FC908E012B
:101840000F5F1F4F6801E114F10479F0D701ED91AA
:10185000FC910680F781E02DB801C7010995080FBA
:10186000111DF701E084F184EECFD8011C92F6013E
:1018700001900020E9F73197BF016C197D0940E024
:10188000C601C6CF63E277E0FB01449150E080E8F7
:101890000E94ED0409CF973009F4BECF983021F4AF
:1018A00081E08093F10000CF993009F0FDCE837084
:1018B00009F0B2CFE1E1F1E081E031E096E321917E
:1018C000222371F08093E9003093EB00DF01119740
:1018D0002C912093EC009093ED008F5F873079F787
:1018E0008EE78093EA001092EA008F8980935E0170
:1018F000DBCE8B8D9C8D1092E90010924C011092E2
:101900004B0190934A0180934901898D811192C0C6
:101910008E899D89913A49F4813209F07DCF47E063
:1019200050E064E071E080E0B3CF913209F074CF11
:10193000833269F48F89988DB0E0A0E08093000134
:1019400090930101A0930201B0930301ADCE8032C8
:1019500069F48091E80082FFFCCF67E084E091E0C9
:101960000E9444058BEF8093E8009ECE823209F0FE
:101970009BCE8F8980930B01EEEFFFE785919491C9
:101980008B3F9C4D51F1E0E0F8E080910401909193
:101990000501A0910601B0910701803B9440A1058B
:1019A000B105F1F480910B0180FD1AC0EE3F8AE091
:1019B000F80789F587E797E7918380838091600036
:1019C00080934D0188E19BE00FB6F894A895809331
:1019D00060000FBE9093600067CEEEEFFAE0D5CFC7
:1019E000808191818737974709F05ECEA8958091D5
:1019F000600088618093600080914D018093600059
:101A0000EE3F2AE0F20789F08091FE0A9091FF0AEA
:101A10009183808349CE808191818737980751F2E5
:101A20009093FF0A8093FE0AC5CF1092FF0A10928E
:101A3000FE0A3ACE0E942A04DC0112960D911C91F6
:101A40000115110509F4E8CED801ED91FC91019042
:101A5000F081E02DBE016B5E7F4FC80109958111B9
:101A600023CEF80100851185EBCF181619060CF46A
:101A70001BCED2CEF1E0FF12BECE67E277E004CFFC
:101A80001F920F920FB60F9211242F933F938F93B3
:101A90009F93AF93BF938091430190914401A09194
:101AA0004501B091460130913E0123E0230F2D37CF
:101AB00058F50196A11DB11D20933E01809343016D
:101AC00090934401A0934501B093460180913F015A
:101AD00090914001A0914101B09142010196A11D58
:101AE000B11D80933F0190934001A0934101B093B9
:101AF0004201BF91AF919F918F913F912F910F9094
:101B00000FBE0F901F90189526E8230F0296A11D77
:101B1000B11DD2CFEF92FF920F931F93CF93DF931C
:101B2000F82E192FE62E042F81E0860F880F0E94D1
:101B3000BF0483E00E94BF04CF2DD12FEC0EFD2EF9
:101B4000F11CCE15DF05B9F007FF13C0FE0184912B
:101B50000E94BF04182F80E00E94BF0481232196B9
:101B60008111EFCFDF91CF911F910F91FF90EF90F7
:101B700008958881EDCF81E0F5CF0F931F93CF9328
:101B8000DF938C0181E090E00E949D0A80FF32C0CB
:101B90008AE090E00E949D0A9FEF980F9E3F50F5CB
:101BA00022E330E0D80150963C932E931F9728E310
:101BB00030E052963C932E935197CBE0D0E0D80181
:101BC000ED91FC910190F081E02D682FC8010995FD
:101BD000CE010E949D0A2196C131D10581F780E096
:101BE0000E94D40388EE93E0DF91CF911F910F9173
:101BF0000C944608DF91CF911F910F91089504979F
:101C00000C94BD0D109262051092610588EE93E070
:101C1000A0E0B0E08093630590936405A093650510
:101C2000B09366058BE191E09093600580935F052A
:101C30008FEF9FEF90936C0580936B0510926A076E
:101C400010926907109270071092710780E18093DB
:101C5000720710926F0710926E07109274078DE250
:101C600091E090936807809367078BE391E09093EE
:101C70006C0780936B07109277071092760710928B
:101C800079071092780781E080937A0710927B079A
:101C900080937C0710927D07EFEEF6E010861186A8
:101CA0003A9687E0E736F807C9F7EFEAF5E01086DD
:101CB00011863A9686E0EF3EF807C9F708957894C2
:101CC00084B5826084BD84B5816084BD85B5826041
:101CD00085BD85B5816085BD80916E0081608093F2
:101CE0006E0010928100809181008260809381005B
:101CF000809181008160809381008091800081606B
:101D00008093800080919100826080939100809107
:101D10009100816080939100809190008160809318
:101D200090008091C10084608093C1008091C100C7
:101D300082608093C1008091C10081608093C10066
:101D40008091C30081608093C3008091C000826055
:101D50008093C0008091C20081608093C200809116
:101D60007A00846080937A0080917A008260809308
:101D70007A0080917A00816080937A0080917A0065
:101D8000806880937A0010925E0110924E0110924A
:101D900050018091D70081608093D70080EA8093C2
:101DA000D80089B5806189BD89B5826089BD09B4D3
:101DB00000FEFDCF61E070E080E090E00E94A305AE
:101DC0008091D8008F7C80618093D8008091E00062
:101DD000807F8093E0008091E1008E7E8093E1001F
:101DE0008DE08093E200559A209A81EC80937C00EC
:101DF00085B1806F85B984B1877E84B984B1876EDF
:101E000084B95E9A5F988AB1806D8AB9769A6E9825
:101E100081B3806F81BB899880B38D7080BB80E572
:101E20008CBD81E08DBD85E090E00E9446085F9A00
:101E300085E090E00E9446085E985C98E4EDF6E04C
:101E400084918EBD00000DB407FEFDCF319606E0F3
:101E5000E13EF007A9F75C9A81E8809364008091E5
:101E6000650081608093650080E00E94D4030E9439
:101E70004B0887FF15C05C9885EA8EBD00000DB445
:101E800007FEFDCF5C9A2E982F982D9880916400C4
:101E900080628093640081E083BF889513BEFCCF8D
:101EA0000E944B0882FF48C02D980E944B088478FE
:101EB0008438E1F40E94440888EC90E00E944608CF
:101EC0002F9882E090E00E94F3118F3F29F06FEF8E
:101ED00082E090E00E94FB1184EF91E00E944608AE
:101EE0002F9A0E944B0884788438D9F30E944B08BB
:101EF00084718431E1F40E94440888EC90E00E94EF
:101F000046082E9882E090E00E94F311882329F081
:101F100060E082E090E00E94FB1184EF91E00E947B
:101F200046082E9A0E944B0884718431D9F388ECBC
:101F300090E00E944608B4CF0E94440882E090E0FE
:101F40000E949D0A882309F49BC03E9A3F9A81E033
:101F500090E00E949D0A182F1470912E81FF0EC0F0
:101F600011112E98C1EFDFEF08E010E00E944B083E
:101F700086FF89C02E9A2F9A0E94440882E390E03F
:101F80000E9446080E944B088111F8CF809164009E
:101F90008E7F8093640080917A00806480937A00C1
:101FA00080917A0086FDFCCFC0917800D0917900B5
:101FB0000E947E05AB01BC01CE01B0E0A0E0DC01D7
:101FC000992788278C019D01040F151F261F371F95
:101FD000C901B8012091640021602093640061155B
:101FE00071058105910511F00E94EA1180E180934D
:101FF000720780E00E94E30310927907109278073D
:10200000109277071092760780E00E94D403CFEEFB
:10201000D6E081E089872A9617E0C736D107D1F745
:102020007724739484E6882E912CA12CB12C95EE04
:10203000C92E96E0D92E20E0E22E20E0F22E662472
:1020400063948FB7F894409143015091440160919B
:102050004501709146018FBF80917307242F281B83
:10206000822F90917407992309F49CC020937507DF
:1020700010927407E114F10421F30E940000E1CFF3
:102080003E983F9864CF992029F0C430D10511F4CF
:102090002E9A2F9881E00E94D4039E01D7FF04C09E
:1020A000222733272C1B3D0B27703327CE01D7FD6A
:1020B000079673E0959587957A95E1F7D7FF05C068
:1020C0000197A801421B530B9A01AC015695542F5E
:1020D000442757954795415A5E4FD12CC12C380162
:1020E000621A730A8E3F6FEF9607B1F1DA01AC56B0
:1020F000BF4F7A0170E060E0F601EC5DF94F5F01DF
:102100008F3F980779F0F501E60FF71FE491F0E0B3
:102110002F01022E01C0440C0A94EAF7F7018488CB
:102120004828448A2115310571F0F501E60FF71FA3
:10213000E491F0E0062C02C0F595E7950A94E2F7E9
:10214000FC91EF2BEC936F5F7F4F1196FFEFEF1A2F
:10215000FF0A68357105A1F6019668E5C60ED11C27
:1021600040585F4FE0EBCE16D10409F0BBCF80E0C2
:102170000E94D4038FE090E00E9446082196C93166
:10218000D10509F0F3CE992011F02F9A2D9880E90E
:1021900091E00E9446080E94440887E697E00E946A
:1021A000BD0DECCE90917207291740F48F5F89170F
:1021B00008F060CF73BE889513BE5CCF6092740741
:1021C0004093730780916E0790916F0701969093EB
:1021D0006F0780936E0780E00E94E30310927907F7
:1021E00010927807109277071092760781E00E948C
:1021F000E3030E949B11A50194010E94091265301E
:102200007105810591055CF580914801803240F4AB
:102210008FEA95E0FC01208521113CC00E94590AFB
:102220000FEE16E0C8010E945E09C8010E94D6099F
:10223000065F1F4FC017D107A9F70FEA15E0C801C5
:102240000E945E09C8010E94D609065F1F4FF6E092
:102250000F3E1F07A1F780E00E94D4030BCF0E941E
:102260009B11A50194010E9409126330710581053B
:102270009105B4F6809147018C3090F68FEE96E090
:10228000FC012085222351F207E08D35900741F2B1
:102290000A96F6CFC816D90619F20A96BBCF8F92C6
:1022A0009F92AF92BF92CF92DF92EF92FF92CF9325
:1022B000DF93EC01688179818A819B8161157105C9
:1022C0008105910521F464E279ED8BE597E02DE13C
:1022D00033EF41E050E00E94091249015A019B018D
:1022E000AC01A7EAB1E40E9428126B017C01ACEEBC
:1022F000B4EFA50194010E943612C60ED71EE81E47
:10230000F91EF7FE06C081E0C81AD108E10880E88E
:10231000F80AC882D982EA82FB82C701B6019F7798
:10232000DF91CF91FF90EF90DF90CF90BF90AF9073
:102330009F908F9008958F929F92AF92BF92CF926D
:10234000DF92EF92FF9260910C0170910D018091EC
:102350000E0190910F01611571058105910521F420
:1023600064E279ED8BE597E02DE133EF41E050E059
:102370000E94091249015A019B01AC01A7EAB1E48C
:102380000E9428126B017C01ACEEB4EFA501940110
:102390000E943612C60ED71EE81EF91EF7FE06C0B2
:1023A00081E0C81AD108E10880E8F80AC0920C015F
:1023B000D0920D01E0920E01F0920F01C701B6011B
:1023C0009F77FF90EF90DF90CF90BF90AF909F905E
:1023D0008F90089560930C0170930D0180930E010E
:1023E00090930F010895F999FECF92BD81BDF89A9F
:1023F000992780B50895262FF999FECF1FBA92BD6F
:1024000081BD20BD0FB6F894FA9AF99A0FBE0196D5
:102410000895052E97FB1EF400940E94201257FD8C
:1024200007D00E943B1207FC03D04EF40C942012FC
:1024300050954095309521953F4F4F4F5F4F0895F0
:1024400090958095709561957F4F8F4F9F4F089520
:102450000E945D12A59F900DB49F900DA49F800DCA
:10246000911D11240895B7FF0C9428120E94281280
:10247000821B930B0895A1E21A2EAA1BBB1BFD0120
:102480000DC0AA1FBB1FEE1FFF1FA217B307E40753
:10249000F50720F0A21BB30BE40BF50B661F771FAB
:1024A000881F991F1A9469F760957095809590958B
:1024B0009B01AC01BD01CF010895A29FB001B39F64
:1024C000C001A39F700D811D1124911DB29F700D3D
:1024D000811D1124911D08955058BB27AA270E94E1
:1024E00084120C948C130E947E1338F00E94851382
:1024F00020F039F49F3F19F426F40C947B130EF46A
:10250000E095E7FB0C947513E92F0E949D1358F397
:10251000BA17620773078407950720F079F4A6F5C8
:102520000C94BF130EF4E0950B2EBA2FA02D0B01C7
:10253000B90190010C01CA01A0011124FF27591B08
:1025400099F0593F50F4503E68F11A16F040A22F0E
:10255000232F342F4427585FF3CF4695379527957F
:10256000A795F0405395C9F77EF41F16BA0B620B7E
:10257000730B840BBAF09150A1F0FF0FBB1F661FC5
:10258000771F881FC2F70EC0BA0F621F731F841F08
:1025900048F4879577956795B795F7959E3F08F02E
:1025A000B0CF9395880F08F09927EE0F97958795F0
:1025B00008950E94511308F481E008950E94E512E5
:1025C0006894B1110C94C01308950E94A51388F06B
:1025D0009F5798F0B92F9927B751B0F0E1F0660FE7
:1025E000771F881F991F1AF0BA95C9F714C0B13028
:1025F00091F00E94BF13B1E008950C94BF13672FB0
:10260000782F8827B85F39F0B93FCCF38695779556
:102610006795B395D9F73EF490958095709561953F
:102620007F4F8F4F9F4F0895E89409C097FB3EF46A
:1026300090958095709561957F4F8F4F9F4F99230F
:10264000A9F0F92F96E9BB279395F695879577958D
:102650006795B795F111F8CFFAF4BB0F11F460FF4D
:102660001BC06F5F7F4F8F4F9F4F16C0882311F0A5
:1026700096E911C0772321F09EE8872F762F05C0B9
:10268000662371F096E8862F70E060E02AF09A9554
:10269000660F771F881FDAF7880F9695879597F949
:1026A0000895990F0008550FAA0BE0E8FEEF1616E3
:1026B0001706E807F907C0F012161306E407F50736
:1026C00098F0621B730B840B950B39F40A2661F0AA
:1026D000232B242B252B21F408950A2609F4A1404D
:1026E000A6958FEF811D811D089597F99F6780E85A
:1026F00070E060E008959FEF80EC089500240A9454
:102700001616170618060906089500240A941216CC
:102710001306140605060895092E0394000C11F4FF
:10272000882352F0BB0F40F4BF2B11F460FF04C0AC
:102730006F5F7F4F8F4F9F4F089557FD9058440F05
:10274000551F59F05F3F71F04795880F97FB991F10
:1027500061F09F3F79F087950895121613061406CD
:10276000551FF2CF4695F1DF08C01616170618065A
:10277000991FF1CF86957105610508940895E89435
:10278000BB2766277727CB0197F90895EE0FFF1F28
:102790000590F491E02D099481E090E0F8940C9478
:0627A000D113F894FFCFF5
:1027A600FFFFFFFF00E10000000000000100000045
:1027B60000C18081000000000000003E04D6055FD5
:1027C600045404A504630481040000000053085166
:0E27D600055B095A09BD0DFCFF0000FF0D0058
:00000001FF
